{
  "_format": "hh-sol-artifact-1",
  "contractName": "MultisigFactory",
  "sourceName": "contracts/MultiSigFactory.sol",
  "abi": [
    {
      "inputs": [
        {
          "internalType": "uint8",
          "name": "_quorum",
          "type": "uint8"
        },
        {
          "internalType": "address[]",
          "name": "_validSigners",
          "type": "address[]"
        }
      ],
      "name": "createMultisigWallet",
      "outputs": [
        {
          "internalType": "contract Multisig",
          "name": "newMulsig_",
          "type": "address"
        },
        {
          "internalType": "uint256",
          "name": "length_",
          "type": "uint256"
        }
      ],
      "stateMutability": "nonpayable",
      "type": "function"
    },
    {
      "inputs": [],
      "name": "getMultiSigClones",
      "outputs": [
        {
          "internalType": "contract Multisig[]",
          "name": "",
          "type": "address[]"
        }
      ],
      "stateMutability": "view",
      "type": "function"
    }
  ],
  "bytecode": "0x608060405234801561001057600080fd5b50612fc6806100206000396000f3fe60806040523480156200001157600080fd5b50600436106200003a5760003560e01c8063109dd5e9146200003f578063b4d3a48c1462000061575b600080fd5b6200004962000098565b60405162000058919062000330565b60405180910390f35b6200007f600480360381019062000079919062000560565b62000128565b6040516200008f929190620005f2565b60405180910390f35b606060008054806020026020016040519081016040528092919081815260200182805480156200011e57602002820191906000526020600020905b8160009054906101000a900473ffffffffffffffffffffffffffffffffffffffff1673ffffffffffffffffffffffffffffffffffffffff1681526020019060010190808311620000d3575b5050505050905090565b60008083836040516200013b90620001da565b62000148929190620006ed565b604051809103906000f08015801562000165573d6000803e3d6000fd5b5091506000829080600181540180825580915050600190039060005260206000200160009091909190916101000a81548173ffffffffffffffffffffffffffffffffffffffff021916908373ffffffffffffffffffffffffffffffffffffffff16021790555060008054905090509250929050565b61286f806200072283390190565b600081519050919050565b600082825260208201905092915050565b6000819050602082019050919050565b600073ffffffffffffffffffffffffffffffffffffffff82169050919050565b6000819050919050565b60006200025f62000259620002538462000214565b62000234565b62000214565b9050919050565b600062000273826200023e565b9050919050565b6000620002878262000266565b9050919050565b62000299816200027a565b82525050565b6000620002ad83836200028e565b60208301905092915050565b6000602082019050919050565b6000620002d382620001e8565b620002df8185620001f3565b9350620002ec8362000204565b8060005b83811015620003235781516200030788826200029f565b97506200031483620002b9565b925050600181019050620002f0565b5085935050505092915050565b600060208201905081810360008301526200034c8184620002c6565b905092915050565b6000604051905090565b600080fd5b600080fd5b600060ff82169050919050565b620003808162000368565b81146200038c57600080fd5b50565b600081359050620003a08162000375565b92915050565b600080fd5b6000601f19601f8301169050919050565b7f4e487b7100000000000000000000000000000000000000000000000000000000600052604160045260246000fd5b620003f682620003ab565b810181811067ffffffffffffffff82111715620004185762000417620003bc565b5b80604052505050565b60006200042d62000354565b90506200043b8282620003eb565b919050565b600067ffffffffffffffff8211156200045e576200045d620003bc565b5b602082029050602081019050919050565b600080fd5b6000620004818262000214565b9050919050565b620004938162000474565b81146200049f57600080fd5b50565b600081359050620004b38162000488565b92915050565b6000620004d0620004ca8462000440565b62000421565b90508083825260208201905060208402830185811115620004f657620004f56200046f565b5b835b818110156200052357806200050e8882620004a2565b845260208401935050602081019050620004f8565b5050509392505050565b600082601f830112620005455762000544620003a6565b5b813562000557848260208601620004b9565b91505092915050565b600080604083850312156200057a57620005796200035e565b5b60006200058a858286016200038f565b925050602083013567ffffffffffffffff811115620005ae57620005ad62000363565b5b620005bc858286016200052d565b9150509250929050565b620005d1816200027a565b82525050565b6000819050919050565b620005ec81620005d7565b82525050565b6000604082019050620006096000830185620005c6565b620006186020830184620005e1565b9392505050565b6200062a8162000368565b82525050565b600081519050919050565b6000819050602082019050919050565b620006568162000474565b82525050565b60006200066a83836200064b565b60208301905092915050565b6000602082019050919050565b6000620006908262000630565b6200069c8185620001f3565b9350620006a9836200063b565b8060005b83811015620006e0578151620006c488826200065c565b9750620006d18362000676565b925050600181019050620006ad565b5085935050505092915050565b60006040820190506200070460008301856200061f565b818103602083015262000718818462000683565b9050939250505056fe60806040523480156200001157600080fd5b506040516200286f3803806200286f83398181016040528101906200003791906200067e565b60018151116200007e576040517f08c379a0000000000000000000000000000000000000000000000000000000008152600401620000759062000745565b60405180910390fd5b60018260ff1611620000c7576040517f08c379a0000000000000000000000000000000000000000000000000000000008152600401620000be90620007b7565b60405180910390fd5b33600360006101000a81548173ffffffffffffffffffffffffffffffffffffffff021916908373ffffffffffffffffffffffffffffffffffffffff16021790555060005b8151811015620002d457600073ffffffffffffffffffffffffffffffffffffffff16828281518110620001435762000142620007d9565b5b602002602001015173ffffffffffffffffffffffffffffffffffffffff1603620001a4576040517f08c379a00000000000000000000000000000000000000000000000000000000081526004016200019b9062000858565b60405180910390fd5b60046000838381518110620001be57620001bd620007d9565b5b602002602001015173ffffffffffffffffffffffffffffffffffffffff1673ffffffffffffffffffffffffffffffffffffffff16815260200190815260200160002060009054906101000a900460ff161562000251576040517f08c379a00000000000000000000000000000000000000000000000000000000081526004016200024890620008ca565b60405180910390fd5b6001600460008484815181106200026d576200026c620007d9565b5b602002602001015173ffffffffffffffffffffffffffffffffffffffff1673ffffffffffffffffffffffffffffffffffffffff16815260200190815260200160002060006101000a81548160ff02191690831515021790555080806001019150506200010b565b508051600060016101000a81548160ff021916908360ff160217905550600460003373ffffffffffffffffffffffffffffffffffffffff1673ffffffffffffffffffffffffffffffffffffffff16815260200190815260200160002060009054906101000a900460ff16620003d5576001600460003373ffffffffffffffffffffffffffffffffffffffff1673ffffffffffffffffffffffffffffffffffffffff16815260200190815260200160002060006101000a81548160ff0219169083151502179055506001600060018282829054906101000a900460ff16620003bc91906200091b565b92506101000a81548160ff021916908360ff1602179055505b600060019054906101000a900460ff1660ff168260ff16111562000430576040517f08c379a00000000000000000000000000000000000000000000000000000000081526004016200042790620009cd565b60405180910390fd5b816000806101000a81548160ff021916908360ff1602179055505050620009ef565b6000604051905090565b600080fd5b600080fd5b600060ff82169050919050565b6200047e8162000466565b81146200048a57600080fd5b50565b6000815190506200049e8162000473565b92915050565b600080fd5b6000601f19601f8301169050919050565b7f4e487b7100000000000000000000000000000000000000000000000000000000600052604160045260246000fd5b620004f482620004a9565b810181811067ffffffffffffffff82111715620005165762000515620004ba565b5b80604052505050565b60006200052b62000452565b9050620005398282620004e9565b919050565b600067ffffffffffffffff8211156200055c576200055b620004ba565b5b602082029050602081019050919050565b600080fd5b600073ffffffffffffffffffffffffffffffffffffffff82169050919050565b60006200059f8262000572565b9050919050565b620005b18162000592565b8114620005bd57600080fd5b50565b600081519050620005d181620005a6565b92915050565b6000620005ee620005e8846200053e565b6200051f565b905080838252602082019050602084028301858111156200061457620006136200056d565b5b835b818110156200064157806200062c8882620005c0565b84526020840193505060208101905062000616565b5050509392505050565b600082601f830112620006635762000662620004a4565b5b815162000675848260208601620005d7565b91505092915050565b600080604083850312156200069857620006976200045c565b5b6000620006a8858286016200048d565b925050602083015167ffffffffffffffff811115620006cc57620006cb62000461565b5b620006da858286016200064b565b9150509250929050565b600082825260208201905092915050565b7f6665772076616c6964207369676e657273000000000000000000000000000000600082015250565b60006200072d601183620006e4565b91506200073a82620006f5565b602082019050919050565b6000602082019050818103600083015262000760816200071e565b9050919050565b7f71756f72756d20697320746f6f20736d616c6c00000000000000000000000000600082015250565b60006200079f601383620006e4565b9150620007ac8262000767565b602082019050919050565b60006020820190508181036000830152620007d28162000790565b9050919050565b7f4e487b7100000000000000000000000000000000000000000000000000000000600052603260045260246000fd5b7f7a65726f2061646472657373206e6f7420616c6c6f7765640000000000000000600082015250565b600062000840601883620006e4565b91506200084d8262000808565b602082019050919050565b60006020820190508181036000830152620008738162000831565b9050919050565b7f7369676e657220616c7265616479206578697374000000000000000000000000600082015250565b6000620008b2601483620006e4565b9150620008bf826200087a565b602082019050919050565b60006020820190508181036000830152620008e581620008a3565b9050919050565b7f4e487b7100000000000000000000000000000000000000000000000000000000600052601160045260246000fd5b6000620009288262000466565b9150620009358362000466565b9250828201905060ff811115620009515762000950620008ec565b5b92915050565b7f71756f72756d2067726561746572207468616e2076616c6964207369676e657260008201527f7300000000000000000000000000000000000000000000000000000000000000602082015250565b6000620009b5602183620006e4565b9150620009c28262000957565b604082019050919050565b60006020820190508181036000830152620009e881620009a6565b9050919050565b611e7080620009ff6000396000f3fe608060405234801561001057600080fd5b50600436106100cf5760003560e01c80638da5cb5b1161008c578063ccb570e311610066578063ccb570e314610207578063d5f5058214610223578063e707cf5414610253578063f203112914610271576100cf565b80638da5cb5b146101965780639aa1653d146101b4578063c475800d146101d2576100cf565b80631703a018146100d457806317eff51b146100f25780632c9f5898146101105780632eaccdeb1461012c5780632f430e171461015c5780633c54068714610178575b600080fd5b6100dc6102a1565b6040516100e9919061146c565b60405180910390f35b6100fa6102b2565b604051610107919061146c565b60405180910390f35b61012a600480360381019061012591906114c2565b6102c5565b005b6101466004803603810190610141919061154d565b610594565b60405161015391906115a8565b60405180910390f35b610176600480360381019061017191906115ef565b6105c3565b005b610180610ad2565b60405161018d919061162b565b60405180910390f35b61019e610ad8565b6040516101ab9190611655565b60405180910390f35b6101bc610afe565b6040516101c9919061162b565b60405180910390f35b6101ec60048036038101906101e791906114c2565b610b04565b6040516101fe96959493929190611670565b60405180910390f35b610221600480360381019061021c91906116d1565b610b6d565b005b61023d60048036038101906102389190611724565b61105c565b60405161024a91906115a8565b60405180910390f35b61025b61107c565b604051610268919061146c565b60405180910390f35b61028b600480360381019061028691906114c2565b61108f565b604051610298919061146c565b60405180910390f35b60008054906101000a900460ff1681565b600060019054906101000a900460ff1681565b600073ffffffffffffffffffffffffffffffffffffffff163373ffffffffffffffffffffffffffffffffffffffff1603610334576040517f08c379a000000000000000000000000000000000000000000000000000000000815260040161032b906117ae565b60405180910390fd5b600460003373ffffffffffffffffffffffffffffffffffffffff1673ffffffffffffffffffffffffffffffffffffffff16815260200190815260200160002060009054906101000a900460ff166103c0576040517f08c379a00000000000000000000000000000000000000000000000000000000081526004016103b79061181a565b60405180910390fd5b60008111610403576040517f08c379a00000000000000000000000000000000000000000000000000000000081526004016103fa90611886565b60405180910390fd5b6000600160025461041491906118d5565b90506000600760008381526020019081526020016000209050818160000181905550828160010181905550338160020160006101000a81548173ffffffffffffffffffffffffffffffffffffffff021916908373ffffffffffffffffffffffffffffffffffffffff16021790555042816003018190555060018160040160008282546104a091906118d5565b9250508190555080600501339080600181540180825580915050600190039060005260206000200160009091909190916101000a81548173ffffffffffffffffffffffffffffffffffffffff021916908373ffffffffffffffffffffffffffffffffffffffff1602179055506001600860003373ffffffffffffffffffffffffffffffffffffffff1673ffffffffffffffffffffffffffffffffffffffff168152602001908152602001600020600084815260200190815260200160002060006101000a81548160ff02191690831515021790555060016002600082825461058891906118d5565b92505081905550505050565b60086020528160005260406000206020528060005260406000206000915091509054906101000a900460ff1681565b6000600560008360ff16815260200190815260200160002090506000816000015403610624576040517f08c379a000000000000000000000000000000000000000000000000000000000815260040161061b90611955565b60405180910390fd5b80600101548160060160009054906101000a900473ffffffffffffffffffffffffffffffffffffffff1673ffffffffffffffffffffffffffffffffffffffff166370a08231306040518263ffffffff1660e01b81526004016106869190611655565b602060405180830381865afa1580156106a3573d6000803e3d6000fd5b505050506040513d601f19601f820116820180604052508101906106c7919061198a565b1015610708576040517f08c379a00000000000000000000000000000000000000000000000000000000081526004016106ff90611a03565b60405180910390fd5b8060030160149054906101000a900460ff161561075a576040517f08c379a000000000000000000000000000000000000000000000000000000000815260040161075190611a6f565b60405180910390fd5b60008054906101000a900460ff1660ff168160050154106107b0576040517f08c379a00000000000000000000000000000000000000000000000000000000081526004016107a790611adb565b60405180910390fd5b600460003373ffffffffffffffffffffffffffffffffffffffff1673ffffffffffffffffffffffffffffffffffffffff16815260200190815260200160002060009054906101000a900460ff1661083c576040517f08c379a000000000000000000000000000000000000000000000000000000000815260040161083390611b47565b60405180910390fd5b600660003373ffffffffffffffffffffffffffffffffffffffff1673ffffffffffffffffffffffffffffffffffffffff16815260200190815260200160002060008360ff16815260200190815260200160002060009054906101000a900460ff16156108dd576040517f08c379a00000000000000000000000000000000000000000000000000000000081526004016108d490611bb3565b60405180910390fd5b6001600660003373ffffffffffffffffffffffffffffffffffffffff1673ffffffffffffffffffffffffffffffffffffffff16815260200190815260200160002060008460ff16815260200190815260200160002060006101000a81548160ff021916908315150217905550600181600501600082825461095e91906118d5565b9250508190555080600701339080600181540180825580915050600190039060005260206000200160009091909190916101000a81548173ffffffffffffffffffffffffffffffffffffffff021916908373ffffffffffffffffffffffffffffffffffffffff16021790555060008054906101000a900460ff1660ff16816005015403610ace5760018160030160146101000a81548160ff0219169083151502179055508060060160009054906101000a900473ffffffffffffffffffffffffffffffffffffffff1673ffffffffffffffffffffffffffffffffffffffff1663a9059cbb8260030160009054906101000a900473ffffffffffffffffffffffffffffffffffffffff1683600101546040518363ffffffff1660e01b8152600401610a89929190611bd3565b6020604051808303816000875af1158015610aa8573d6000803e3d6000fd5b505050506040513d601f19601f82011682018060405250810190610acc9190611c28565b505b5050565b60015481565b600360009054906101000a900473ffffffffffffffffffffffffffffffffffffffff1681565b60025481565b60076020528060005260406000206000915090508060000154908060010154908060020160009054906101000a900473ffffffffffffffffffffffffffffffffffffffff16908060020160149054906101000a900460ff16908060030154908060040154905086565b600073ffffffffffffffffffffffffffffffffffffffff163373ffffffffffffffffffffffffffffffffffffffff1603610bdc576040517f08c379a0000000000000000000000000000000000000000000000000000000008152600401610bd390611ca1565b60405180910390fd5b600460003373ffffffffffffffffffffffffffffffffffffffff1673ffffffffffffffffffffffffffffffffffffffff16815260200190815260200160002060009054906101000a900460ff16610c68576040517f08c379a0000000000000000000000000000000000000000000000000000000008152600401610c5f90611d0d565b60405180910390fd5b60008311610cab576040517f08c379a0000000000000000000000000000000000000000000000000000000008152600401610ca290611d79565b60405180910390fd5b600073ffffffffffffffffffffffffffffffffffffffff168273ffffffffffffffffffffffffffffffffffffffff1603610d1a576040517f08c379a0000000000000000000000000000000000000000000000000000000008152600401610d1190611ca1565b60405180910390fd5b600073ffffffffffffffffffffffffffffffffffffffff168173ffffffffffffffffffffffffffffffffffffffff1603610d89576040517f08c379a0000000000000000000000000000000000000000000000000000000008152600401610d8090611ca1565b60405180910390fd5b828173ffffffffffffffffffffffffffffffffffffffff166370a08231306040518263ffffffff1660e01b8152600401610dc39190611655565b602060405180830381865afa158015610de0573d6000803e3d6000fd5b505050506040513d601f19601f82011682018060405250810190610e04919061198a565b1015610e45576040517f08c379a0000000000000000000000000000000000000000000000000000000008152600401610e3c90611a03565b60405180910390fd5b600060018054610e5591906118d5565b90506000600560008381526020019081526020016000209050818160000181905550848160010181905550838160030160006101000a81548173ffffffffffffffffffffffffffffffffffffffff021916908373ffffffffffffffffffffffffffffffffffffffff160217905550338160020160006101000a81548173ffffffffffffffffffffffffffffffffffffffff021916908373ffffffffffffffffffffffffffffffffffffffff160217905550428160040181905550828160060160006101000a81548173ffffffffffffffffffffffffffffffffffffffff021916908373ffffffffffffffffffffffffffffffffffffffff1602179055506001816005016000828254610f6791906118d5565b9250508190555080600701339080600181540180825580915050600190039060005260206000200160009091909190916101000a81548173ffffffffffffffffffffffffffffffffffffffff021916908373ffffffffffffffffffffffffffffffffffffffff1602179055506001600660003373ffffffffffffffffffffffffffffffffffffffff1673ffffffffffffffffffffffffffffffffffffffff168152602001908152602001600020600084815260200190815260200160002060006101000a81548160ff021916908315150217905550600180600082825461104e91906118d5565b925050819055505050505050565b60046020528060005260406000206000915054906101000a900460ff1681565b600360149054906101000a900460ff1681565b60008060076000848152602001908152602001600020905060008160000154036110ee576040517f08c379a00000000000000000000000000000000000000000000000000000000081526004016110e590611de5565b60405180910390fd5b8060020160149054906101000a900460ff1615611140576040517f08c379a000000000000000000000000000000000000000000000000000000000815260040161113790611a6f565b60405180910390fd5b60008054906101000a900460ff1660ff16816004015410611196576040517f08c379a000000000000000000000000000000000000000000000000000000000815260040161118d90611adb565b60405180910390fd5b600460003373ffffffffffffffffffffffffffffffffffffffff1673ffffffffffffffffffffffffffffffffffffffff16815260200190815260200160002060009054906101000a900460ff16611222576040517f08c379a000000000000000000000000000000000000000000000000000000000815260040161121990611b47565b60405180910390fd5b600860003373ffffffffffffffffffffffffffffffffffffffff1673ffffffffffffffffffffffffffffffffffffffff168152602001908152602001600020600084815260200190815260200160002060009054906101000a900460ff16156112c0576040517f08c379a00000000000000000000000000000000000000000000000000000000081526004016112b790611bb3565b60405180910390fd5b6001600860003373ffffffffffffffffffffffffffffffffffffffff1673ffffffffffffffffffffffffffffffffffffffff168152602001908152602001600020600085815260200190815260200160002060006101000a81548160ff021916908315150217905550600181600401600082825461133e91906118d5565b9250508190555080600501339080600181540180825580915050600190039060005260206000200160009091909190916101000a81548173ffffffffffffffffffffffffffffffffffffffff021916908373ffffffffffffffffffffffffffffffffffffffff1602179055506001600360148282829054906101000a900460ff166113c99190611e05565b92506101000a81548160ff021916908360ff16021790555060008054906101000a900460ff1660ff168160040154036114385760018160020160146101000a81548160ff02191690831515021790555080600101546000806101000a81548160ff021916908360ff1602179055505b600360149054906101000a900460ff16915050919050565b600060ff82169050919050565b61146681611450565b82525050565b6000602082019050611481600083018461145d565b92915050565b600080fd5b6000819050919050565b61149f8161148c565b81146114aa57600080fd5b50565b6000813590506114bc81611496565b92915050565b6000602082840312156114d8576114d7611487565b5b60006114e6848285016114ad565b91505092915050565b600073ffffffffffffffffffffffffffffffffffffffff82169050919050565b600061151a826114ef565b9050919050565b61152a8161150f565b811461153557600080fd5b50565b60008135905061154781611521565b92915050565b6000806040838503121561156457611563611487565b5b600061157285828601611538565b9250506020611583858286016114ad565b9150509250929050565b60008115159050919050565b6115a28161158d565b82525050565b60006020820190506115bd6000830184611599565b92915050565b6115cc81611450565b81146115d757600080fd5b50565b6000813590506115e9816115c3565b92915050565b60006020828403121561160557611604611487565b5b6000611613848285016115da565b91505092915050565b6116258161148c565b82525050565b6000602082019050611640600083018461161c565b92915050565b61164f8161150f565b82525050565b600060208201905061166a6000830184611646565b92915050565b600060c082019050611685600083018961161c565b611692602083018861161c565b61169f6040830187611646565b6116ac6060830186611599565b6116b9608083018561161c565b6116c660a083018461161c565b979650505050505050565b6000806000606084860312156116ea576116e9611487565b5b60006116f8868287016114ad565b935050602061170986828701611538565b925050604061171a86828701611538565b9150509250925092565b60006020828403121561173a57611739611487565b5b600061174884828501611538565b91505092915050565b600082825260208201905092915050565b7f76696c6c6167652070656f706c65000000000000000000000000000000000000600082015250565b6000611798600e83611751565b91506117a382611762565b602082019050919050565b600060208201905081810360008301526117c78161178b565b9050919050565b7f6f6762656e692073686966740000000000000000000000000000000000000000600082015250565b6000611804600c83611751565b915061180f826117ce565b602082019050919050565b60006020820190508181036000830152611833816117f7565b9050919050565b7f61726520796f7520746861742062726f6b650000000000000000000000000000600082015250565b6000611870601283611751565b915061187b8261183a565b602082019050919050565b6000602082019050818103600083015261189f81611863565b9050919050565b7f4e487b7100000000000000000000000000000000000000000000000000000000600052601160045260246000fd5b60006118e08261148c565b91506118eb8361148c565b9250828201905080821115611903576119026118a6565b5b92915050565b7f696e76616c696420747820696400000000000000000000000000000000000000600082015250565b600061193f600d83611751565b915061194a82611909565b602082019050919050565b6000602082019050818103600083015261196e81611932565b9050919050565b60008151905061198481611496565b92915050565b6000602082840312156119a05761199f611487565b5b60006119ae84828501611975565b91505092915050565b7f696e73756666696369656e742066756e64730000000000000000000000000000600082015250565b60006119ed601283611751565b91506119f8826119b7565b602082019050919050565b60006020820190508181036000830152611a1c816119e0565b9050919050565b7f7472616e73616374696f6e20616c726561647920636f6d706c65746564000000600082015250565b6000611a59601d83611751565b9150611a6482611a23565b602082019050919050565b60006020820190508181036000830152611a8881611a4c565b9050919050565b7f617070726f76616c7320616c7265616479207265616368656400000000000000600082015250565b6000611ac5601983611751565b9150611ad082611a8f565b602082019050919050565b60006020820190508181036000830152611af481611ab8565b9050919050565b7f6e6f7420612076616c6964207369676e65720000000000000000000000000000600082015250565b6000611b31601283611751565b9150611b3c82611afb565b602082019050919050565b60006020820190508181036000830152611b6081611b24565b9050919050565b7f63616e2774207369676e20747769636500000000000000000000000000000000600082015250565b6000611b9d601083611751565b9150611ba882611b67565b602082019050919050565b60006020820190508181036000830152611bcc81611b90565b9050919050565b6000604082019050611be86000830185611646565b611bf5602083018461161c565b9392505050565b611c058161158d565b8114611c1057600080fd5b50565b600081519050611c2281611bfc565b92915050565b600060208284031215611c3e57611c3d611487565b5b6000611c4c84828501611c13565b91505092915050565b7f61646472657373207a65726f20666f756e640000000000000000000000000000600082015250565b6000611c8b601283611751565b9150611c9682611c55565b602082019050919050565b60006020820190508181036000830152611cba81611c7e565b9050919050565b7f696e76616c6964207369676e6572000000000000000000000000000000000000600082015250565b6000611cf7600e83611751565b9150611d0282611cc1565b602082019050919050565b60006020820190508181036000830152611d2681611cea565b9050919050565b7f63616e27742073656e64207a65726f20616d6f756e7400000000000000000000600082015250565b6000611d63601683611751565b9150611d6e82611d2d565b602082019050919050565b60006020820190508181036000830152611d9281611d56565b9050919050565b7f796f757220706170610000000000000000000000000000000000000000000000600082015250565b6000611dcf600983611751565b9150611dda82611d99565b602082019050919050565b60006020820190508181036000830152611dfe81611dc2565b9050919050565b6000611e1082611450565b9150611e1b83611450565b9250828201905060ff811115611e3457611e336118a6565b5b9291505056fea2646970667358221220c7ac2f37e9bb79ab822df8ae0244c8c9ac31497716a66475e6fefa79437b507a64736f6c63430008180033a26469706673582212209641481822c48d430aaa33962073f45a7c150dd19d63926f8176ef8f15dc2eda64736f6c63430008180033",
  "linkReferences": {},
  "deployedLinkReferences": {}
}